{
    "contractName": "AzuroBet",
    "abi": [
        {
            "anonymous": false,
            "inputs": [
                {
                    "indexed": true,
                    "internalType": "address",
                    "name": "owner",
                    "type": "address"
                },
                {
                    "indexed": true,
                    "internalType": "address",
                    "name": "approved",
                    "type": "address"
                },
                {
                    "indexed": true,
                    "internalType": "uint256",
                    "name": "tokenId",
                    "type": "uint256"
                }
            ],
            "name": "Approval",
            "type": "event"
        },
        {
            "anonymous": false,
            "inputs": [
                {
                    "indexed": true,
                    "internalType": "address",
                    "name": "owner",
                    "type": "address"
                },
                {
                    "indexed": true,
                    "internalType": "address",
                    "name": "operator",
                    "type": "address"
                },
                {
                    "indexed": false,
                    "internalType": "bool",
                    "name": "approved",
                    "type": "bool"
                }
            ],
            "name": "ApprovalForAll",
            "type": "event"
        },
        {
            "anonymous": false,
            "inputs": [
                {
                    "indexed": true,
                    "internalType": "address",
                    "name": "previousOwner",
                    "type": "address"
                },
                {
                    "indexed": true,
                    "internalType": "address",
                    "name": "newOwner",
                    "type": "address"
                }
            ],
            "name": "OwnershipTransferred",
            "type": "event"
        },
        {
            "anonymous": false,
            "inputs": [
                {
                    "indexed": true,
                    "internalType": "address",
                    "name": "from",
                    "type": "address"
                },
                {
                    "indexed": true,
                    "internalType": "address",
                    "name": "to",
                    "type": "address"
                },
                {
                    "indexed": true,
                    "internalType": "uint256",
                    "name": "tokenId",
                    "type": "uint256"
                }
            ],
            "name": "Transfer",
            "type": "event"
        },
        {
            "inputs": [
                {
                    "internalType": "address",
                    "name": "to",
                    "type": "address"
                },
                {
                    "internalType": "uint256",
                    "name": "tokenId",
                    "type": "uint256"
                }
            ],
            "name": "approve",
            "outputs": [],
            "stateMutability": "nonpayable",
            "type": "function"
        },
        {
            "inputs": [
                {
                    "internalType": "address",
                    "name": "owner",
                    "type": "address"
                }
            ],
            "name": "balanceOf",
            "outputs": [
                {
                    "internalType": "uint256",
                    "name": "",
                    "type": "uint256"
                }
            ],
            "stateMutability": "view",
            "type": "function"
        },
        {
            "inputs": [
                {
                    "internalType": "uint256",
                    "name": "id",
                    "type": "uint256"
                }
            ],
            "name": "burn",
            "outputs": [],
            "stateMutability": "nonpayable",
            "type": "function"
        },
        {
            "inputs": [
                {
                    "internalType": "uint256",
                    "name": "tokenId",
                    "type": "uint256"
                }
            ],
            "name": "getApproved",
            "outputs": [
                {
                    "internalType": "address",
                    "name": "",
                    "type": "address"
                }
            ],
            "stateMutability": "view",
            "type": "function"
        },
        {
            "inputs": [],
            "name": "initialize",
            "outputs": [],
            "stateMutability": "nonpayable",
            "type": "function"
        },
        {
            "inputs": [
                {
                    "internalType": "address",
                    "name": "owner",
                    "type": "address"
                },
                {
                    "internalType": "address",
                    "name": "operator",
                    "type": "address"
                }
            ],
            "name": "isApprovedForAll",
            "outputs": [
                {
                    "internalType": "bool",
                    "name": "",
                    "type": "bool"
                }
            ],
            "stateMutability": "view",
            "type": "function"
        },
        {
            "inputs": [],
            "name": "lpAddress",
            "outputs": [
                {
                    "internalType": "address",
                    "name": "",
                    "type": "address"
                }
            ],
            "stateMutability": "view",
            "type": "function"
        },
        {
            "inputs": [
                {
                    "internalType": "address",
                    "name": "account",
                    "type": "address"
                },
                {
                    "internalType": "uint256",
                    "name": "id",
                    "type": "uint256"
                }
            ],
            "name": "mint",
            "outputs": [],
            "stateMutability": "nonpayable",
            "type": "function"
        },
        {
            "inputs": [],
            "name": "name",
            "outputs": [
                {
                    "internalType": "string",
                    "name": "",
                    "type": "string"
                }
            ],
            "stateMutability": "view",
            "type": "function"
        },
        {
            "inputs": [],
            "name": "owner",
            "outputs": [
                {
                    "internalType": "address",
                    "name": "",
                    "type": "address"
                }
            ],
            "stateMutability": "view",
            "type": "function"
        },
        {
            "inputs": [
                {
                    "internalType": "uint256",
                    "name": "tokenId",
                    "type": "uint256"
                }
            ],
            "name": "ownerOf",
            "outputs": [
                {
                    "internalType": "address",
                    "name": "",
                    "type": "address"
                }
            ],
            "stateMutability": "view",
            "type": "function"
        },
        {
            "inputs": [
                {
                    "internalType": "uint256",
                    "name": "tokenId",
                    "type": "uint256"
                }
            ],
            "name": "ownerOftoken",
            "outputs": [
                {
                    "internalType": "address",
                    "name": "",
                    "type": "address"
                }
            ],
            "stateMutability": "view",
            "type": "function"
        },
        {
            "inputs": [],
            "name": "renounceOwnership",
            "outputs": [],
            "stateMutability": "nonpayable",
            "type": "function"
        },
        {
            "inputs": [
                {
                    "internalType": "address",
                    "name": "from",
                    "type": "address"
                },
                {
                    "internalType": "address",
                    "name": "to",
                    "type": "address"
                },
                {
                    "internalType": "uint256",
                    "name": "tokenId",
                    "type": "uint256"
                }
            ],
            "name": "safeTransferFrom",
            "outputs": [],
            "stateMutability": "nonpayable",
            "type": "function"
        },
        {
            "inputs": [
                {
                    "internalType": "address",
                    "name": "from",
                    "type": "address"
                },
                {
                    "internalType": "address",
                    "name": "to",
                    "type": "address"
                },
                {
                    "internalType": "uint256",
                    "name": "tokenId",
                    "type": "uint256"
                },
                {
                    "internalType": "bytes",
                    "name": "_data",
                    "type": "bytes"
                }
            ],
            "name": "safeTransferFrom",
            "outputs": [],
            "stateMutability": "nonpayable",
            "type": "function"
        },
        {
            "inputs": [
                {
                    "internalType": "address",
                    "name": "operator",
                    "type": "address"
                },
                {
                    "internalType": "bool",
                    "name": "approved",
                    "type": "bool"
                }
            ],
            "name": "setApprovalForAll",
            "outputs": [],
            "stateMutability": "nonpayable",
            "type": "function"
        },
        {
            "inputs": [
                {
                    "internalType": "address",
                    "name": "lpAddress_",
                    "type": "address"
                }
            ],
            "name": "setLP",
            "outputs": [],
            "stateMutability": "nonpayable",
            "type": "function"
        },
        {
            "inputs": [
                {
                    "internalType": "bytes4",
                    "name": "interfaceId",
                    "type": "bytes4"
                }
            ],
            "name": "supportsInterface",
            "outputs": [
                {
                    "internalType": "bool",
                    "name": "",
                    "type": "bool"
                }
            ],
            "stateMutability": "view",
            "type": "function"
        },
        {
            "inputs": [],
            "name": "symbol",
            "outputs": [
                {
                    "internalType": "string",
                    "name": "",
                    "type": "string"
                }
            ],
            "stateMutability": "view",
            "type": "function"
        },
        {
            "inputs": [
                {
                    "internalType": "uint256",
                    "name": "index",
                    "type": "uint256"
                }
            ],
            "name": "tokenByIndex",
            "outputs": [
                {
                    "internalType": "uint256",
                    "name": "",
                    "type": "uint256"
                }
            ],
            "stateMutability": "view",
            "type": "function"
        },
        {
            "inputs": [
                {
                    "internalType": "address",
                    "name": "owner",
                    "type": "address"
                },
                {
                    "internalType": "uint256",
                    "name": "index",
                    "type": "uint256"
                }
            ],
            "name": "tokenOfOwnerByIndex",
            "outputs": [
                {
                    "internalType": "uint256",
                    "name": "",
                    "type": "uint256"
                }
            ],
            "stateMutability": "view",
            "type": "function"
        },
        {
            "inputs": [
                {
                    "internalType": "uint256",
                    "name": "tokenId",
                    "type": "uint256"
                }
            ],
            "name": "tokenURI",
            "outputs": [
                {
                    "internalType": "string",
                    "name": "",
                    "type": "string"
                }
            ],
            "stateMutability": "view",
            "type": "function"
        },
        {
            "inputs": [],
            "name": "totalSupply",
            "outputs": [
                {
                    "internalType": "uint256",
                    "name": "",
                    "type": "uint256"
                }
            ],
            "stateMutability": "view",
            "type": "function"
        },
        {
            "inputs": [
                {
                    "internalType": "address",
                    "name": "from",
                    "type": "address"
                },
                {
                    "internalType": "address",
                    "name": "to",
                    "type": "address"
                },
                {
                    "internalType": "uint256",
                    "name": "tokenId",
                    "type": "uint256"
                }
            ],
            "name": "transferFrom",
            "outputs": [],
            "stateMutability": "nonpayable",
            "type": "function"
        },
        {
            "inputs": [
                {
                    "internalType": "address",
                    "name": "newOwner",
                    "type": "address"
                }
            ],
            "name": "transferOwnership",
            "outputs": [],
            "stateMutability": "nonpayable",
            "type": "function"
        }
    ],
    "bytecode": "608060405234801561001057600080fd5b50611d12806100206000396000f3fe608060405234801561001057600080fd5b50600436106101735760003560e01c80636352211e116100de57806395d89b4111610097578063b88d4fde11610071578063b88d4fde14610314578063c87b56dd14610327578063e985e9c51461033a578063f2fde38b1461037657600080fd5b806395d89b41146102e65780639b4dc8cc146102ee578063a22cb4651461030157600080fd5b80636352211e1461028c57806370a082311461029f578063715018a6146102b25780638129fc1c146102ba57806386c58dbd146102c25780638da5cb5b146102d557600080fd5b80632f34d282116101305780632f34d2821461021a5780632f745c591461022d57806340c10f191461024057806342842e0e1461025357806342966c68146102665780634f6ccce71461027957600080fd5b806301ffc9a71461017857806306fdde03146101a0578063081812fc146101b5578063095ea7b3146101e057806318160ddd146101f557806323b872dd14610207575b600080fd5b61018b6101863660046117ea565b610389565b60405190151581526020015b60405180910390f35b6101a86103b4565b604051610197919061185b565b6101c86101c336600461186e565b610446565b6040516001600160a01b039091168152602001610197565b6101f36101ee3660046118a3565b6104e0565b005b60cb545b604051908152602001610197565b6101f36102153660046118cd565b6105f6565b6101f3610228366004611909565b610627565b6101f961023b3660046118a3565b610673565b6101f361024e3660046118a3565b610709565b6101f36102613660046118cd565b61075e565b6101f361027436600461186e565b610779565b6101f961028736600461186e565b6107cc565b6101c861029a36600461186e565b61085f565b6101f96102ad366004611909565b6108d6565b6101f361095d565b6101f3610993565b6101c86102d036600461186e565b610a9c565b6033546001600160a01b03166101c8565b6101a8610aa7565b60fb546101c8906001600160a01b031681565b6101f361030f366004611924565b610ab6565b6101f3610322366004611976565b610ac1565b6101a861033536600461186e565b610af9565b61018b610348366004611a52565b6001600160a01b039182166000908152609c6020908152604080832093909416825291909152205460ff1690565b6101f3610384366004611909565b610b97565b60006001600160e01b0319821663780e9d6360e01b14806103ae57506103ae82610c2f565b92915050565b6060609780546103c390611a85565b80601f01602080910402602001604051908101604052809291908181526020018280546103ef90611a85565b801561043c5780601f106104115761010080835404028352916020019161043c565b820191906000526020600020905b81548152906001019060200180831161041f57829003601f168201915b5050505050905090565b6000818152609960205260408120546001600160a01b03166104c45760405162461bcd60e51b815260206004820152602c60248201527f4552433732313a20617070726f76656420717565727920666f72206e6f6e657860448201526b34b9ba32b73a103a37b5b2b760a11b60648201526084015b60405180910390fd5b506000908152609b60205260409020546001600160a01b031690565b60006104eb8261085f565b9050806001600160a01b0316836001600160a01b031614156105595760405162461bcd60e51b815260206004820152602160248201527f4552433732313a20617070726f76616c20746f2063757272656e74206f776e656044820152603960f91b60648201526084016104bb565b336001600160a01b038216148061057557506105758133610348565b6105e75760405162461bcd60e51b815260206004820152603860248201527f4552433732313a20617070726f76652063616c6c6572206973206e6f74206f7760448201527f6e6572206e6f7220617070726f76656420666f7220616c6c000000000000000060648201526084016104bb565b6105f18383610c7f565b505050565b6106003382610ced565b61061c5760405162461bcd60e51b81526004016104bb90611ac0565b6105f1838383610de4565b6033546001600160a01b031633146106515760405162461bcd60e51b81526004016104bb90611b11565b60fb80546001600160a01b0319166001600160a01b0392909216919091179055565b600061067e836108d6565b82106106e05760405162461bcd60e51b815260206004820152602b60248201527f455243373231456e756d657261626c653a206f776e657220696e646578206f7560448201526a74206f6620626f756e647360a81b60648201526084016104bb565b506001600160a01b0391909116600090815260c960209081526040808320938352929052205490565b60fb546001600160a01b031633146107505760405162461bcd60e51b815260206004820152600a60248201526904e46543a4f6e6c794c560b41b60448201526064016104bb565b61075a8282610f8f565b5050565b6105f183838360405180602001604052806000815250610ac1565b60fb546001600160a01b031633146107c05760405162461bcd60e51b815260206004820152600a60248201526904e46543a4f6e6c794c560b41b60448201526064016104bb565b6107c9816110dd565b50565b60006107d760cb5490565b821061083a5760405162461bcd60e51b815260206004820152602c60248201527f455243373231456e756d657261626c653a20676c6f62616c20696e646578206f60448201526b7574206f6620626f756e647360a01b60648201526084016104bb565b60cb828154811061084d5761084d611b46565b90600052602060002001549050919050565b6000818152609960205260408120546001600160a01b0316806103ae5760405162461bcd60e51b815260206004820152602960248201527f4552433732313a206f776e657220717565727920666f72206e6f6e657869737460448201526832b73a103a37b5b2b760b91b60648201526084016104bb565b60006001600160a01b0382166109415760405162461bcd60e51b815260206004820152602a60248201527f4552433732313a2062616c616e636520717565727920666f7220746865207a65604482015269726f206164647265737360b01b60648201526084016104bb565b506001600160a01b03166000908152609a602052604090205490565b6033546001600160a01b031633146109875760405162461bcd60e51b81526004016104bb90611b11565b6109916000611184565b565b600054610100900460ff166109ae5760005460ff16156109b2565b303b155b610a155760405162461bcd60e51b815260206004820152602e60248201527f496e697469616c697a61626c653a20636f6e747261637420697320616c72656160448201526d191e481a5b9a5d1a585b1a5e995960921b60648201526084016104bb565b600054610100900460ff16158015610a37576000805461ffff19166101011790555b610a3f6111d6565b610a886040518060400160405280600c81526020016b105e9d5c9bd0995d0b53919560a21b8152506040518060400160405280600381526020016210915560ea1b81525061120d565b80156107c9576000805461ff001916905550565b60006103ae8261085f565b6060609880546103c390611a85565b61075a33838361124e565b610acb3383610ced565b610ae75760405162461bcd60e51b81526004016104bb90611ac0565b610af38484848461131d565b50505050565b6000818152609960205260409020546060906001600160a01b0316610b785760405162461bcd60e51b815260206004820152602f60248201527f4552433732314d657461646174613a2055524920717565727920666f72206e6f60448201526e3732bc34b9ba32b73a103a37b5b2b760891b60648201526084016104bb565b6040518060600160405280602e8152602001611caf602e913992915050565b6033546001600160a01b03163314610bc15760405162461bcd60e51b81526004016104bb90611b11565b6001600160a01b038116610c265760405162461bcd60e51b815260206004820152602660248201527f4f776e61626c653a206e6577206f776e657220697320746865207a65726f206160448201526564647265737360d01b60648201526084016104bb565b6107c981611184565b60006001600160e01b031982166380ac58cd60e01b1480610c6057506001600160e01b03198216635b5e139f60e01b145b806103ae57506301ffc9a760e01b6001600160e01b03198316146103ae565b6000818152609b6020526040902080546001600160a01b0319166001600160a01b0384169081179091558190610cb48261085f565b6001600160a01b03167f8c5be1e5ebec7d5bd14f71427d1e84f3dd0314c0f7b2291e5b200ac8c7c3b92560405160405180910390a45050565b6000818152609960205260408120546001600160a01b0316610d665760405162461bcd60e51b815260206004820152602c60248201527f4552433732313a206f70657261746f7220717565727920666f72206e6f6e657860448201526b34b9ba32b73a103a37b5b2b760a11b60648201526084016104bb565b6000610d718361085f565b9050806001600160a01b0316846001600160a01b03161480610dac5750836001600160a01b0316610da184610446565b6001600160a01b0316145b80610ddc57506001600160a01b038082166000908152609c602090815260408083209388168352929052205460ff165b949350505050565b826001600160a01b0316610df78261085f565b6001600160a01b031614610e5f5760405162461bcd60e51b815260206004820152602960248201527f4552433732313a207472616e73666572206f6620746f6b656e2074686174206960448201526839903737ba1037bbb760b91b60648201526084016104bb565b6001600160a01b038216610ec15760405162461bcd60e51b8152602060048201526024808201527f4552433732313a207472616e7366657220746f20746865207a65726f206164646044820152637265737360e01b60648201526084016104bb565b610ecc838383611350565b610ed7600082610c7f565b6001600160a01b0383166000908152609a60205260408120805460019290610f00908490611b72565b90915550506001600160a01b0382166000908152609a60205260408120805460019290610f2e908490611b89565b909155505060008181526099602052604080822080546001600160a01b0319166001600160a01b0386811691821790925591518493918716917fddf252ad1be2c89b69c2b068fc378daa952ba7f163c4a11628f55a4df523b3ef91a4505050565b6001600160a01b038216610fe55760405162461bcd60e51b815260206004820181905260248201527f4552433732313a206d696e7420746f20746865207a65726f206164647265737360448201526064016104bb565b6000818152609960205260409020546001600160a01b03161561104a5760405162461bcd60e51b815260206004820152601c60248201527f4552433732313a20746f6b656e20616c7265616479206d696e7465640000000060448201526064016104bb565b61105660008383611350565b6001600160a01b0382166000908152609a6020526040812080546001929061107f908490611b89565b909155505060008181526099602052604080822080546001600160a01b0319166001600160a01b03861690811790915590518392907fddf252ad1be2c89b69c2b068fc378daa952ba7f163c4a11628f55a4df523b3ef908290a45050565b60006110e88261085f565b90506110f681600084611350565b611101600083610c7f565b6001600160a01b0381166000908152609a6020526040812080546001929061112a908490611b72565b909155505060008281526099602052604080822080546001600160a01b0319169055518391906001600160a01b038416907fddf252ad1be2c89b69c2b068fc378daa952ba7f163c4a11628f55a4df523b3ef908390a45050565b603380546001600160a01b038381166001600160a01b0319831681179093556040519116919082907f8be0079c531659141344cd1fd0a4f28419497f9722a3daafe3b4186f6b6457e090600090a35050565b600054610100900460ff166111fd5760405162461bcd60e51b81526004016104bb90611ba1565b611205611408565b61099161142f565b600054610100900460ff166112345760405162461bcd60e51b81526004016104bb90611ba1565b61123c611408565b611244611408565b61075a828261145f565b816001600160a01b0316836001600160a01b031614156112b05760405162461bcd60e51b815260206004820152601960248201527f4552433732313a20617070726f766520746f2063616c6c65720000000000000060448201526064016104bb565b6001600160a01b038381166000818152609c6020908152604080832094871680845294825291829020805460ff191686151590811790915591519182527f17307eab39ab6107e8899845ad3d59bd9653f200f220920489ca2b5937696c31910160405180910390a3505050565b611328848484610de4565b611334848484846114ad565b610af35760405162461bcd60e51b81526004016104bb90611bec565b6001600160a01b0383166113ab576113a68160cb8054600083815260cc60205260408120829055600182018355919091527fa7ce836d032b2bf62b7e2097a8e0a6d8aeb35405ad15271e96d3b0188a1d06fb0155565b6113ce565b816001600160a01b0316836001600160a01b0316146113ce576113ce83826115ab565b6001600160a01b0382166113e5576105f181611648565b826001600160a01b0316826001600160a01b0316146105f1576105f182826116f7565b600054610100900460ff166109915760405162461bcd60e51b81526004016104bb90611ba1565b600054610100900460ff166114565760405162461bcd60e51b81526004016104bb90611ba1565b61099133611184565b600054610100900460ff166114865760405162461bcd60e51b81526004016104bb90611ba1565b815161149990609790602085019061173b565b5080516105f190609890602084019061173b565b60006001600160a01b0384163b156115a057604051630a85bd0160e11b81526001600160a01b0385169063150b7a02906114f1903390899088908890600401611c3e565b6020604051808303816000875af192505050801561152c575060408051601f3d908101601f1916820190925261152991810190611c7b565b60015b611586573d80801561155a576040519150601f19603f3d011682016040523d82523d6000602084013e61155f565b606091505b50805161157e5760405162461bcd60e51b81526004016104bb90611bec565b805181602001fd5b6001600160e01b031916630a85bd0160e11b149050610ddc565b506001949350505050565b600060016115b8846108d6565b6115c29190611b72565b600083815260ca6020526040902054909150808214611615576001600160a01b038416600090815260c960209081526040808320858452825280832054848452818420819055835260ca90915290208190555b50600091825260ca602090815260408084208490556001600160a01b03909416835260c981528383209183525290812055565b60cb5460009061165a90600190611b72565b600083815260cc602052604081205460cb805493945090928490811061168257611682611b46565b906000526020600020015490508060cb83815481106116a3576116a3611b46565b600091825260208083209091019290925582815260cc909152604080822084905585825281205560cb8054806116db576116db611c98565b6001900381819060005260206000200160009055905550505050565b6000611702836108d6565b6001600160a01b03909316600090815260c960209081526040808320868452825280832085905593825260ca9052919091209190915550565b82805461174790611a85565b90600052602060002090601f01602090048101928261176957600085556117af565b82601f1061178257805160ff19168380011785556117af565b828001600101855582156117af579182015b828111156117af578251825591602001919060010190611794565b506117bb9291506117bf565b5090565b5b808211156117bb57600081556001016117c0565b6001600160e01b0319811681146107c957600080fd5b6000602082840312156117fc57600080fd5b8135611807816117d4565b9392505050565b6000815180845260005b8181101561183457602081850181015186830182015201611818565b81811115611846576000602083870101525b50601f01601f19169290920160200192915050565b602081526000611807602083018461180e565b60006020828403121561188057600080fd5b5035919050565b80356001600160a01b038116811461189e57600080fd5b919050565b600080604083850312156118b657600080fd5b6118bf83611887565b946020939093013593505050565b6000806000606084860312156118e257600080fd5b6118eb84611887565b92506118f960208501611887565b9150604084013590509250925092565b60006020828403121561191b57600080fd5b61180782611887565b6000806040838503121561193757600080fd5b61194083611887565b91506020830135801515811461195557600080fd5b809150509250929050565b634e487b7160e01b600052604160045260246000fd5b6000806000806080858703121561198c57600080fd5b61199585611887565b93506119a360208601611887565b925060408501359150606085013567ffffffffffffffff808211156119c757600080fd5b818701915087601f8301126119db57600080fd5b8135818111156119ed576119ed611960565b604051601f8201601f19908116603f01168101908382118183101715611a1557611a15611960565b816040528281528a6020848701011115611a2e57600080fd5b82602086016020830137600060208483010152809550505050505092959194509250565b60008060408385031215611a6557600080fd5b611a6e83611887565b9150611a7c60208401611887565b90509250929050565b600181811c90821680611a9957607f821691505b60208210811415611aba57634e487b7160e01b600052602260045260246000fd5b50919050565b60208082526031908201527f4552433732313a207472616e736665722063616c6c6572206973206e6f74206f6040820152701ddb995c881b9bdc88185c1c1c9bdd9959607a1b606082015260800190565b6020808252818101527f4f776e61626c653a2063616c6c6572206973206e6f7420746865206f776e6572604082015260600190565b634e487b7160e01b600052603260045260246000fd5b634e487b7160e01b600052601160045260246000fd5b600082821015611b8457611b84611b5c565b500390565b60008219821115611b9c57611b9c611b5c565b500190565b6020808252602b908201527f496e697469616c697a61626c653a20636f6e7472616374206973206e6f74206960408201526a6e697469616c697a696e6760a81b606082015260800190565b60208082526032908201527f4552433732313a207472616e7366657220746f206e6f6e20455243373231526560408201527131b2b4bb32b91034b6b83632b6b2b73a32b960711b606082015260800190565b6001600160a01b0385811682528416602082015260408101839052608060608201819052600090611c719083018461180e565b9695505050505050565b600060208284031215611c8d57600080fd5b8151611807816117d4565b634e487b7160e01b600052603160045260246000fdfe516d61457963394845756a34726a67334e51657271717243355439426645796143383239757733794c36614d7754a2646970667358221220872737a8641067018eaf314c464f8b3f50f3d0d20725fdf8be32a78dca930b2764736f6c634300080b0033",
    "sourcePath": "c:/Users/adamk/OneDrive/Desktop/Azuro-v1-master/contracts/AzuroBet.sol",
    "compiler": {
        "name": "solc",
        "version": "0.8.11+commit.d7f03943"
    },
    "functionHashes": {
        "approve(address,uint256)": "095ea7b3",
        "balanceOf(address)": "70a08231",
        "burn(uint256)": "42966c68",
        "getApproved(uint256)": "081812fc",
        "initialize()": "8129fc1c",
        "isApprovedForAll(address,address)": "e985e9c5",
        "lpAddress()": "9b4dc8cc",
        "mint(address,uint256)": "40c10f19",
        "name()": "06fdde03",
        "owner()": "8da5cb5b",
        "ownerOf(uint256)": "6352211e",
        "ownerOftoken(uint256)": "86c58dbd",
        "renounceOwnership()": "715018a6",
        "safeTransferFrom(address,address,uint256)": "42842e0e",
        "safeTransferFrom(address,address,uint256,bytes)": "b88d4fde",
        "setApprovalForAll(address,bool)": "a22cb465",
        "setLP(address)": "2f34d282",
        "supportsInterface(bytes4)": "01ffc9a7",
        "symbol()": "95d89b41",
        "tokenByIndex(uint256)": "4f6ccce7",
        "tokenOfOwnerByIndex(address,uint256)": "2f745c59",
        "tokenURI(uint256)": "c87b56dd",
        "totalSupply()": "18160ddd",
        "transferFrom(address,address,uint256)": "23b872dd",
        "transferOwnership(address)": "f2fde38b"
    },
    "gasEstimates": {
        "creation": {
            "codeDepositCost": "1488400",
            "executionCost": "1555",
            "totalCost": "1489955"
        },
        "external": {
            "approve(address,uint256)": "infinite",
            "balanceOf(address)": "2634",
            "burn(uint256)": "infinite",
            "getApproved(uint256)": "4760",
            "initialize()": "infinite",
            "isApprovedForAll(address,address)": "infinite",
            "lpAddress()": "2404",
            "mint(address,uint256)": "213599",
            "name()": "infinite",
            "owner()": "2464",
            "ownerOf(uint256)": "2579",
            "ownerOftoken(uint256)": "infinite",
            "renounceOwnership()": "28184",
            "safeTransferFrom(address,address,uint256)": "infinite",
            "safeTransferFrom(address,address,uint256,bytes)": "infinite",
            "setApprovalForAll(address,bool)": "26775",
            "setLP(address)": "26734",
            "supportsInterface(bytes4)": "infinite",
            "symbol()": "infinite",
            "tokenByIndex(uint256)": "6848",
            "tokenOfOwnerByIndex(address,uint256)": "4975",
            "tokenURI(uint256)": "infinite",
            "totalSupply()": "2393",
            "transferFrom(address,address,uint256)": "infinite",
            "transferOwnership(address)": "28422"
        }
    }
}